{
  "contractName": "HealthRecords",
  "abi": [
    {
      "constant": true,
      "inputs": [],
      "name": "manager",
      "outputs": [
        {
          "name": "",
          "type": "address"
        }
      ],
      "payable": false,
      "stateMutability": "view",
      "type": "function"
    },
    {
      "inputs": [],
      "payable": false,
      "stateMutability": "nonpayable",
      "type": "constructor"
    },
    {
      "constant": true,
      "inputs": [
        {
          "name": "patientId",
          "type": "string"
        }
      ],
      "name": "getRecordHash",
      "outputs": [
        {
          "name": "",
          "type": "string"
        }
      ],
      "payable": false,
      "stateMutability": "view",
      "type": "function"
    },
    {
      "constant": false,
      "inputs": [
        {
          "name": "patientId",
          "type": "string"
        },
        {
          "name": "recordHash",
          "type": "string"
        }
      ],
      "name": "setRecordHash",
      "outputs": [],
      "payable": false,
      "stateMutability": "nonpayable",
      "type": "function"
    }
  ],
  "bytecode": "0x6060604052341561000f57600080fd5b336000806101000a81548173ffffffffffffffffffffffffffffffffffffffff021916908373ffffffffffffffffffffffffffffffffffffffff1602179055506105238061005e6000396000f300606060405260043610610057576000357c0100000000000000000000000000000000000000000000000000000000900463ffffffff168063481c6a751461005c5780639fd86305146100b1578063b469119d14610187575b600080fd5b341561006757600080fd5b61006f610227565b604051808273ffffffffffffffffffffffffffffffffffffffff1673ffffffffffffffffffffffffffffffffffffffff16815260200191505060405180910390f35b34156100bc57600080fd5b61010c600480803590602001908201803590602001908080601f0160208091040260200160405190810160405280939291908181526020018383808284378201915050505050509190505061024c565b6040518080602001828103825283818151815260200191508051906020019080838360005b8381101561014c578082015181840152602081019050610131565b50505050905090810190601f1680156101795780820380516001836020036101000a031916815260200191505b509250505060405180910390f35b341561019257600080fd5b610225600480803590602001908201803590602001908080601f0160208091040260200160405190810160405280939291908181526020018383808284378201915050505050509190803590602001908201803590602001908080601f0160208091040260200160405190810160405280939291908181526020018383808284378201915050505050509190505061035f565b005b6000809054906101000a900473ffffffffffffffffffffffffffffffffffffffff1681565b61025461043e565b6001826040518082805190602001908083835b60208310151561028c5780518252602082019150602081019050602083039250610267565b6001836020036101000a03801982511681845116808217855250505050505090500191505090815260200160405180910390208054600181600116156101000203166002900480601f0160208091040260200160405190810160405280929190818152602001828054600181600116156101000203166002900480156103535780601f1061032857610100808354040283529160200191610353565b820191906000526020600020905b81548152906001019060200180831161033657829003601f168201915b50505050509050919050565b6000809054906101000a900473ffffffffffffffffffffffffffffffffffffffff1673ffffffffffffffffffffffffffffffffffffffff163373ffffffffffffffffffffffffffffffffffffffff161415156103ba57600080fd5b806001836040518082805190602001908083835b6020831015156103f357805182526020820191506020810190506020830392506103ce565b6001836020036101000a03801982511681845116808217855250505050505090500191505090815260200160405180910390209080519060200190610439929190610452565b505050565b602060405190810160405280600081525090565b828054600181600116156101000203166002900490600052602060002090601f016020900481019282601f1061049357805160ff19168380011785556104c1565b828001600101855582156104c1579182015b828111156104c05782518255916020019190600101906104a5565b5b5090506104ce91906104d2565b5090565b6104f491905b808211156104f05760008160009055506001016104d8565b5090565b905600a165627a7a7230582081aba1a6b6265fa7d299161d70826920854d16a033459a9e9af0d78b343e40510029",
  "source": "pragma solidity ^0.4.17;\n\ncontract HealthRecords {\n  address public manager;\n  mapping(string => string) patientIdToRecordHash;\n    \n  modifier restricted() {\n    require(msg.sender == manager);\n    _;\n  }\n    \n  function HealthRecords() public {\n    manager = msg.sender;\n  }\n    \n  function getRecordHash(string patientId) public view returns (string) {\n    return patientIdToRecordHash[patientId];\n  }\n    \n  function setRecordHash(string patientId, string recordHash) public restricted {\n    patientIdToRecordHash[patientId] = recordHash;\n  }\n}",
  "sourcePath": "/home/lhyong/Develop/ethereum/med-server/contracts/HealthRecords.sol",
  "compiler": {
    "name": "solc",
    "version": "0.4.19+commit.c4cbbb05.Emscripten.clang"
  },
  "schemaVersion": "2.0.0",
  "updatedAt": "2018-05-27T09:41:44.396Z"
}